{
  "contractName": "QRCodeGenerator",
  "abi": [
    {
      "inputs": [],
      "name": "generatedAddress",
      "outputs": [
        {
          "internalType": "address",
          "name": "",
          "type": "address"
        }
      ],
      "stateMutability": "view",
      "type": "function",
      "constant": true
    },
    {
      "inputs": [],
      "name": "hashedProductName",
      "outputs": [
        {
          "internalType": "bytes32",
          "name": "",
          "type": "bytes32"
        }
      ],
      "stateMutability": "view",
      "type": "function",
      "constant": true
    },
    {
      "inputs": [
        {
          "internalType": "string",
          "name": "productName",
          "type": "string"
        }
      ],
      "name": "generateAddressAndHash",
      "outputs": [],
      "stateMutability": "nonpayable",
      "type": "function"
    }
  ],
  "bytecode": "0x608060405234801561000f575f80fd5b506104a68061001d5f395ff3fe608060405234801561000f575f80fd5b506004361061003f575f3560e01c8063a2deb4a014610043578063c4865e521461005f578063eef98b6f1461007d575b5f80fd5b61005d600480360381019061005891906102ce565b61009b565b005b610067610158565b604051610074919061032d565b60405180910390f35b61008561015e565b6040516100929190610385565b60405180910390f35b5f81426040516020016100af929190610433565b6040516020818303038152906040529050806040516020016100d1919061045a565b604051602081830303815290604052805190602001205f1c5f806101000a81548173ffffffffffffffffffffffffffffffffffffffff021916908373ffffffffffffffffffffffffffffffffffffffff16021790555081604051602001610138919061045a565b604051602081830303815290604052805190602001206001819055505050565b60015481565b5f8054906101000a900473ffffffffffffffffffffffffffffffffffffffff1681565b5f604051905090565b5f80fd5b5f80fd5b5f80fd5b5f80fd5b5f601f19601f8301169050919050565b7f4e487b71000000000000000000000000000000000000000000000000000000005f52604160045260245ffd5b6101e08261019a565b810181811067ffffffffffffffff821117156101ff576101fe6101aa565b5b80604052505050565b5f610211610181565b905061021d82826101d7565b919050565b5f67ffffffffffffffff82111561023c5761023b6101aa565b5b6102458261019a565b9050602081019050919050565b828183375f83830152505050565b5f61027261026d84610222565b610208565b90508281526020810184848401111561028e5761028d610196565b5b610299848285610252565b509392505050565b5f82601f8301126102b5576102b4610192565b5b81356102c5848260208601610260565b91505092915050565b5f602082840312156102e3576102e261018a565b5b5f82013567ffffffffffffffff811115610300576102ff61018e565b5b61030c848285016102a1565b91505092915050565b5f819050919050565b61032781610315565b82525050565b5f6020820190506103405f83018461031e565b92915050565b5f73ffffffffffffffffffffffffffffffffffffffff82169050919050565b5f61036f82610346565b9050919050565b61037f81610365565b82525050565b5f6020820190506103985f830184610376565b92915050565b5f81519050919050565b5f81905092915050565b5f5b838110156103cf5780820151818401526020810190506103b4565b5f8484015250505050565b5f6103e48261039e565b6103ee81856103a8565b93506103fe8185602086016103b2565b80840191505092915050565b5f819050919050565b5f819050919050565b61042d6104288261040a565b610413565b82525050565b5f61043e82856103da565b915061044a828461041c565b6020820191508190509392505050565b5f61046582846103da565b91508190509291505056fea26469706673582212205cb29c856ecba7f331a59cb5fe0f907038e288893fdfec098139730e89d4fef364736f6c63430008150033",
  "immutableReferences": {},
  "source": "// SPDX-License-Identifier: MIT\r\npragma solidity ^0.8.0;\r\n\r\ncontract QRCodeGenerator {\r\n    address public generatedAddress;\r\n    bytes32 public hashedProductName;\r\n\r\n    function generateAddressAndHash(string memory productName) public {\r\n        // Concatenate the product name with some randomness for uniqueness\r\n        string memory combinedString = string(abi.encodePacked(productName, block.timestamp));\r\n\r\n        // Hash the combined string to get an Ethereum address\r\n        generatedAddress = address(uint160(uint256(keccak256(abi.encodePacked(combinedString)))));\r\n\r\n        // Hash the product name\r\n        hashedProductName = keccak256(abi.encodePacked(productName));\r\n        \r\n    }\r\n}\r\n",
  "sourcePath": "C:\\Users\\anura\\OneDrive\\Desktop\\November\\Supply1.0\\cryptoa-ddress-qr-code\\contracts\\QRCodeGenerator.sol",
  "compiler": {
    "name": "solc",
    "version": "0.8.21+commit.d9974bed.Emscripten.clang"
  },
  "schemaVersion": "3.4.16",
  "updatedAt": "2023-10-07T17:36:37.670Z",
  "networkType": "ethereum",
  "devdoc": {
    "kind": "dev",
    "methods": {},
    "version": 1
  },
  "userdoc": {
    "kind": "user",
    "methods": {},
    "version": 1
  }
}